{
  "_format": "hh-sol-artifact-1",
  "contractName": "Voting",
  "sourceName": "contracts/Voting.sol",
  "abi": [
    {
      "anonymous": false,
      "inputs": [
        {
          "indexed": true,
          "internalType": "uint256",
          "name": "votingId",
          "type": "uint256"
        },
        {
          "indexed": true,
          "internalType": "address",
          "name": "voter",
          "type": "address"
        }
      ],
      "name": "VoteSubmitted",
      "type": "event"
    },
    {
      "inputs": [
        {
          "internalType": "uint256",
          "name": "_votingId",
          "type": "uint256"
        },
        {
          "internalType": "address",
          "name": "_voter",
          "type": "address"
        }
      ],
      "name": "checkIfVoted",
      "outputs": [
        {
          "internalType": "bool",
          "name": "",
          "type": "bool"
        }
      ],
      "stateMutability": "view",
      "type": "function"
    },
    {
      "inputs": [
        {
          "internalType": "uint256",
          "name": "_votingId",
          "type": "uint256"
        }
      ],
      "name": "getTotalVotes",
      "outputs": [
        {
          "internalType": "uint256",
          "name": "",
          "type": "uint256"
        }
      ],
      "stateMutability": "view",
      "type": "function"
    },
    {
      "inputs": [
        {
          "internalType": "uint256",
          "name": "_votingId",
          "type": "uint256"
        }
      ],
      "name": "vote",
      "outputs": [],
      "stateMutability": "nonpayable",
      "type": "function"
    },
    {
      "inputs": [
        {
          "internalType": "uint256",
          "name": "",
          "type": "uint256"
        }
      ],
      "name": "voteCount",
      "outputs": [
        {
          "internalType": "uint256",
          "name": "",
          "type": "uint256"
        }
      ],
      "stateMutability": "view",
      "type": "function"
    }
  ],
  "bytecode": "0x608060405234801561001057600080fd5b506105c4806100206000396000f3fe608060405234801561001057600080fd5b506004361061004c5760003560e01c80630121b93f146100515780632ce35e111461006d5780634fc8a20d1461009d578063d37b42d6146100cd575b600080fd5b61006b60048036038101906100669190610349565b6100fd565b005b61008760048036038101906100829190610349565b610272565b6040516100949190610385565b60405180910390f35b6100b760048036038101906100b29190610349565b61028f565b6040516100c49190610385565b60405180910390f35b6100e760048036038101906100e291906103fe565b6102a7565b6040516100f49190610459565b60405180910390f35b60008082815260200190815260200160002060003373ffffffffffffffffffffffffffffffffffffffff1673ffffffffffffffffffffffffffffffffffffffff16815260200190815260200160002060009054906101000a900460ff161561019a576040517f08c379a0000000000000000000000000000000000000000000000000000000008152600401610191906104f7565b60405180910390fd5b600160008083815260200190815260200160002060003373ffffffffffffffffffffffffffffffffffffffff1673ffffffffffffffffffffffffffffffffffffffff16815260200190815260200160002060006101000a81548160ff02191690831515021790555060016000828152602001908152602001600020600081548092919061022690610546565b91905055503373ffffffffffffffffffffffffffffffffffffffff16817ff4a95e0ccff9e012051fb09885c2134c4034ed409e70914a95e1f7c561d206fd60405160405180910390a350565b600060016000838152602001908152602001600020549050919050565b60016020528060005260406000206000915090505481565b600080600084815260200190815260200160002060008373ffffffffffffffffffffffffffffffffffffffff1673ffffffffffffffffffffffffffffffffffffffff16815260200190815260200160002060009054906101000a900460ff16905092915050565b600080fd5b6000819050919050565b61032681610313565b811461033157600080fd5b50565b6000813590506103438161031d565b92915050565b60006020828403121561035f5761035e61030e565b5b600061036d84828501610334565b91505092915050565b61037f81610313565b82525050565b600060208201905061039a6000830184610376565b92915050565b600073ffffffffffffffffffffffffffffffffffffffff82169050919050565b60006103cb826103a0565b9050919050565b6103db816103c0565b81146103e657600080fd5b50565b6000813590506103f8816103d2565b92915050565b600080604083850312156104155761041461030e565b5b600061042385828601610334565b9250506020610434858286016103e9565b9150509250929050565b60008115159050919050565b6104538161043e565b82525050565b600060208201905061046e600083018461044a565b92915050565b600082825260208201905092915050565b7f596f75206861766520616c726561647920766f74656420666f7220746869732060008201527f766f74696e672049442e00000000000000000000000000000000000000000000602082015250565b60006104e1602a83610474565b91506104ec82610485565b604082019050919050565b60006020820190508181036000830152610510816104d4565b9050919050565b7f4e487b7100000000000000000000000000000000000000000000000000000000600052601160045260246000fd5b600061055182610313565b91507fffffffffffffffffffffffffffffffffffffffffffffffffffffffffffffffff820361058357610582610517565b5b60018201905091905056fea2646970667358221220f6fcba384d5658bda25eb1f301c31369eb96d897832365751506a074b5579b5464736f6c63430008110033",
  "linkReferences": {},
  "deployedLinkReferences": {}
}